:100000000C9490000C94F40E0C94210F0C94B800F6
:100010000C94B8000C94B8000C94C20E0C94B80068
:100020000C94B8000C94B8000C94B8000C94B20B6B
:100030000C94B8000C94B8000C94B8000C94B80060
:100040000C94EF040C94B8000C9465070C94A10771
:100050000C94B8000C94B8000C94B8000C94B80040
:100060000C94B8000C94B8000000000700020100D6
:100070000003040600000000000000000102040864
:100080001020408001020408102001020408102002
:10009000040404040404040402020202020203032E
:1000A00003030303000000002300260029000000D2
:1000B0000000250028002B0000000000240027007D
:1000C0002A0048454C4C4F2D2D2D2D0043484445CA
:1000D000564944002D23403F5C2A41424344454653
:1000E0004748494A4B4C4D4E4F5051525354555628
:1000F0005758595A002D23403F5C2A4142434445FA
:10010000464748494A4B4C4D4E4F50515253545517
:10011000565758595A00D7045C08EA0EE704F00E07
:1001200011241FBECFEFD8E0DEBFCDBF11E0A0E0AD
:10013000B1E0E4E9F6E202C005900D92A63EB107F7
:10014000D9F712E0A6EEB1E001C01D92AC3FB107B5
:10015000E1F711E0CCE1D1E004C02297FE010E945A
:100160003913C631D107C9F70E949E0B0C94BB11FD
:100170000C9400000C948B09FF920F931F93CF9364
:10018000DF93CDB7DEB760970FB6F894DEBF0FBE32
:10019000CDBF61E088E00E94320661E088E00E9405
:1001A0006A0640E052EC61E070E08EE092E00E946E
:1001B000DC07F12C09C060E00E943206F39461E094
:1001C000F80180810E946A060F2D10E0075E1E4F25
:1001D000F80180818E3F79F710E004C01F5F61E075
:1001E0000E943206E12FF0E0E65FFE4F80818E3FF5
:1001F000A9F769E070E084EF91E00E940D0D61E2E3
:1002000071E0CE0108960E94570960E070E085EB2E
:1002100092E00E94AB0B8F8761E070E085EB92E08B
:100220000E94AB0B888B6F85CE0108960E943D0B18
:10023000019621F16889CE0108960E943D0B019636
:10024000E9F0BE01615F7F4F8CED92E00E94B30D3B
:1002500062E471E0CE0101960E945709BE016F5F12
:100260007F4F8CED92E00E947E0ECE0101960E949F
:10027000E608CE0108960E94E60804C08DE28F874A
:10028000888BDFCF60960FB6F894DEBF0FBECDBF70
:10029000DF91CF911F910F91FF9008950C94E60884
:1002A00020E003C02F5F361741F0FC01E20FF11D83
:1002B00030813E3FB9F780E0089581E008958F9244
:1002C0009F92AF92BF92DF92EF92FF920F931F9394
:1002D000CF93DF93CDB7DEB72E970FB6F894DEBF7E
:1002E0000FBECDBFD82E8B017A010E94A106F80166
:1002F000208130E08217930709F45DC00E94390520
:10030000F70180809180A280B380681979098A09F9
:100310009B09673971058105910588F54CC066EE2A
:1003200071E0CE0108960E94BA006AE471E008C04C
:1003300066EE71E0CE0108960E94BA006FE471E0AB
:10034000CE0108960E94690ABC0186EE91E00E94E7
:100350007409CE0108960E944E0166EE71E0CE014E
:1003600001960E948B09BE016F5F7F4F8CED92E07A
:100370000E947E0ECE0101960E94E6081CC08D2DC3
:100380000E94A106F80180830E943905F70160836D
:1003900071838283938363E571E086EE91E00E942E
:1003A00095096D2D86EE91E00E94DB09F8018081B0
:1003B0008111B5CFBDCF2E960FB6F894DEBF0FBE1C
:1003C000CDBFDF91CF911F910F91FF90EF90DF9004
:1003D000BF90AF909F908F900895EF92FF920F93F0
:1003E0001F93CF93DF93CDB7DEB72E970FB6F89458
:1003F000DEBF0FBECDBF8091F202882309F470C228
:100400006BEE72E08DEE91E00E9474091092F202A0
:100410006DEE71E086EE91E00E94740966E571E090
:10042000CE0101960E945709BE016F5F7F4F8DEE8E
:1004300091E00E94A80A8C01CE0101960E94E60874
:10044000012B09F43BC260E671E0CE0101960E94E7
:100450005709BE016F5F7F4F8DEE91E00E94A80AA1
:100460008C01CE0101960E94E608012BC1F424E024
:1004700030E040E050E066EE71E0CE0101960E946F
:10048000410BBE016F5F7F4FCE0108960E94BA00FC
:100490006AE671E0CE0108960E94690AC8C06EE65D
:1004A00071E0CE0101960E945709BE016F5F7F4F38
:1004B0008DEE91E00E94A80A8C01CE0101960E9467
:1004C000E608012B19F468E771E0F4C16FE771E009
:1004D000CE0101960E945709BE016F5F7F4F8DEEDE
:1004E00091E00E94A80A8C01CE0101960E94E608C4
:1004F000012B89F44091E90260E070E085EB92E025
:100500000E94AE0B4091EA0261E070E085EB92E060
:100510000E94AE0BD3C169E871E0CE0101960E9442
:100520005709BE016F5F7F4F8DEE91E00E94FD0A7B
:10053000182FCE0101960E94E608112311F145E023
:1005400050E06DEE71E0CE0101960E94860BBE0177
:100550006F5F7F4F8DEE91E00E947409CE0101968E
:100560000E94E6088DEE91E00E94920B653B7105BA
:1005700028F484EF91E00E94460DA0C16FE871E07D
:1005800099C168E971E0CE0101960E945709BE0148
:100590006F5F7F4F8DEE91E00E94FD0A182FCE0114
:1005A00001960E94E608112309F45DC045E050E081
:1005B0006DEE71E0CE0101960E94860BBE016F5F69
:1005C0007F4F8DEE91E00E947409CE0101960E944A
:1005D000E60867E871E0CE0101960E945709BE0166
:1005E0006F5F7F4F8DEE91E00E94FD0A182FCE01C4
:1005F00001960E94E608112341F100910302109137
:10060000040225E030E040E050E066EE71E0CE010B
:1006100001960E94410BBE016F5F7F4FCE0108968D
:100620000E94BA00B801CE0108960E94970ABC0148
:1006300086EE91E00E947409CE0108960E944E0158
:10064000CE0101960E94E60839C18DEE91E00E942C
:10065000920B603127E2720708F090CF709304028A
:10066000609303022BC160E070E08DEE91E00E9488
:100670001D0BE82E61E070E08DEE91E00E941D0BF5
:10068000182F62E070E08DEE91E00E941D0B90EF5C
:10069000F92EF80E8AE0189FF00C112443E050E088
:1006A0006DEE71E0CE0101960E94860BBE016F5F78
:1006B0007F4F8DEE91E00E947409CE0101960E9459
:1006C000E6086EE971E0CE0101960E945709BE016D
:1006D0006F5F7F4F8DEE91E00E94A80A8C01CE01E2
:1006E00001960E94E608012B61F46F2D8AE091E0EB
:1006F0000E945001882311F061E01FC065EA71E09B
:10070000D9C06FEA71E0CE0101960E945709BE017F
:100710006F5F7F4F8DEE91E00E94A80A8C01CE01A1
:1007200001960E94E608012B61F46F2D8AE091E0AA
:100730000E945001882311F360E08F2D0E946A0609
:10074000BDC069EB71E0CE0101960E945709BE0160
:100750006F5F7F4F8DEE91E00E94FD0A182FCE0152
:1007600001960E94E608112381F163E070E08DEEAE
:1007700091E00E941D0B082F64E070E08DEE91E087
:100780000E941D0B182F65E070E08DEE91E00E9435
:100790001D0BE82E6F2D86E091E00E94500188230A
:1007A00089F06E2D6051812F9AE0099F800D1124F0
:1007B000805E2AE0829F600D112470E08F2D0E94E0
:1007C000A7057CC066EB71E075C06DEB71E0CE01F2
:1007D00001960E945709BE016F5F7F4F8DEE91E039
:1007E0000E94A80A8C01CE0101960E94E608012B06
:1007F00009F05EC023E030E040E050E066EE71E0DA
:10080000CE0101960E94410BBE016F5F7F4F86EEC5
:1008100091E00E947409CE0101960E94E60881E4ED
:100820006F2DE8121DC082E191E00E9450018823E3
:10083000A1F08F2D0E9486058C0166EE71E0CE013D
:1008400008960E94BA0064EC71E0CE0108960E94FE
:10085000690AB8010E94860A1AC066EC71E02AC0D3
:1008600089E191E00E9450018823B9F38F2D0E9405
:10087000A10666EE71E08823A1F0CE0108960E94E1
:10088000BA006AE471E0CE0108960E94690ABC01D0
:1008900086EE91E00E947409CE0108960E944E01F6
:1008A0000DC0CE0108960E94BA006FE471E0EBCF54
:1008B0006FEC71E086EE91E00E94950966EE71E0C2
:1008C000CE0101960E948B09BE016F5F7F4F8CEDB8
:1008D00092E00E947E0ECE0101960E94E6085AC068
:1008E0004BEF51E060E171E082E00E945F0147EF71
:1008F00051E06FE071E083E00E945F010E943905E2
:100900000091FF011091000220910102309102023A
:10091000601B710B820B930B673971058105910583
:10092000C8F180911101882361F184E00E94A10641
:10093000892BD9F026C010920402109203020AC03B
:1009400084E00E94A106892B09F504C0909304025B
:10095000809303020E9439056093FF0170930002A7
:10096000809301029093020215C0109211018091B0
:100970000302909104020196803127E29207D8F693
:10098000E5CF809111018111E5CFDACF81E080932D
:100990001101E0CF2E960FB6F894DEBF0FBECDBF8B
:1009A000DF91CF911F910F91FF90EF90089584EF09
:1009B00091E00E94700C65EC71E08DEE91E00E9478
:1009C000570965EC71E086EE91E00C94570986EECC
:1009D00091E00E94E6088DEE91E00C94E6081F92EB
:1009E0000F920FB60F9211242F933F938F939F93E3
:1009F000AF93BF938091050290910602A0910702E8
:100A0000B091080230910D02232F2D5F2D3720F475
:100A10000196A11DB11D05C0232F2A570296A11DC5
:100A2000B11D20930D028093050290930602A093BE
:100A30000702B09308028091090290910A02A091E6
:100A40000B02B0910C020196A11DB11D8093090209
:100A500090930A02A0930B02B0930C02BF91AF9146
:100A60009F918F913F912F910F900FBE0F901F90EC
:100A700018950F931F938FB7F8940091050210916A
:100A8000060220910702309108028FBFB801C90108
:100A90001F910F910895789484B5826084BD84B5C8
:100AA000816084BD85B5826085BD85B5816085BD69
:100AB000EEE6F0E0808181608083E1E8F0E0108282
:100AC000808182608083808181608083E0E8F0E0C3
:100AD000808181608083E1EBF0E0808184608083AD
:100AE000E0EBF0E0808181608083EAE7F0E08081E4
:100AF0008460808380818260808380818160808344
:100B00008081806880831092C10008958E3008F043
:100B10008E5087702091200140E4249F9001112481
:100B2000822B80937C0080917A00806480937A008D
:100B300080917A0086FDFCCF209178003091790079
:100B4000932F80E0AC01422B9A01C90108951F93B5
:100B5000CF93DF93182FEB0161E00E9432062097BC
:100B600011F460E004C0CF3FD10539F461E0812F7A
:100B7000DF91CF911F910C946A06E12FF0E0E859C4
:100B8000FF4FE491E330B9F028F4E13051F0E23066
:100B9000B1F50CC0E63019F1E73049F1E43079F5F0
:100BA00014C084B5806884BDC7BD2EC084B5806282
:100BB00084BDC8BD29C0809180008068809380007A
:100BC000D0938900C09388001FC08091800080620C
:100BD00080938000D0938B00C0938A0015C08091D1
:100BE000B00080688093B000C093B3000DC08091C6
:100BF000B00080628093B000C093B40005C0C038DC
:100C0000D1050CF0B3CFADCFDF91CF911F910895F7
:100C1000833069F028F48130A1F0823011F514C0DE
:100C20008630B1F08730C1F08430D9F404C08091AF
:100C300080008F7703C0809180008F7D809380003B
:100C4000089584B58F7702C084B58F7D84BD0895E3
:100C50008091B0008F7703C08091B0008F7D80932A
:100C6000B0000895CF93DF9390E0FC01E458FF4F6C
:100C70004491FC01E057FF4F8491882341F190E0BB
:100C8000880F991FFC01E854FF4F25913491D90139
:100C900082559F4FFC0185919491C82FD92F9FB702
:100CA000F8948C91611106C0409584238C938881BF
:100CB000842308C0623041F4242F209582238C9332
:100CC0008881842B888302C0842B8C939FBFDF9103
:100CD000CF9108950F931F93CF93DF931F92CDB7BA
:100CE000DEB7282F30E0F901E859FF4F8491F90170
:100CF000E458FF4F1491F901E057FF4F049100238E
:100D0000D1F0882321F069830E9408066981E02FD1
:100D1000F0E0EE0FFF1FE255FF4F85919491DC014B
:100D20009FB7F8948C91611103C01095812301C085
:100D3000812B8C939FBF0F90DF91CF911F910F91CB
:100D40000895CF93DF93282F30E0F901E859FF4F42
:100D50008491F901E458FF4FD491F901E057FF4F16
:100D6000C491CC2389F081110E940806EC2FF0E099
:100D7000EE0FFF1FEC55FF4F85919491DC018C9194
:100D80008D2321E030E011F420E030E0C901DF9153
:100D9000CF910895FC0184859585FC01E05CFF4FAF
:100DA00020813181FC01EE5BFF4F80819181281B06
:100DB000390B2F733327C9010895FC01848595856C
:100DC000FC01E05CFF4F40815181FC01EE5BFF4F75
:100DD000208131814217530741F00190F081E02DCD
:100DE000E80FF91F208130E002C02FEF3FEFC9016B
:100DF0000895FC0184859585FC01E05CFF4F4081EE
:100E00005181FC01EE5BFF4F208131814217530776
:100E100081F0A081B181A80FB91F8C91208131810F
:100E20002F5F3F4F2F73332731832083282F30E0EC
:100E300002C02FEF3FEFC9010895FC018685978519
:100E4000FC01E05CFF4FDC01AE5BBF4F4081518194
:100E50002D913C91119742175307C1F70895CF93F5
:100E6000DF93FC0186859785DC01A05CBF4F2D9147
:100E70003C9111972F5F3F4F2F733327EC01CE5BCF
:100E8000DF4F4881598124173507D9F30D90BC9164
:100E9000A02DA80FB91F6C93A685B785A05CBF4F86
:100EA00011963C932E93A689B7892C9181E090E00E
:100EB000058C02C0880F991F0A94E2F7282B2C9307
:100EC00081E090E0DF91CF9108951F920F920FB6CD
:100ED0000F9211242F933F934F938F939F93EF93F0
:100EE000FF934091C6008091B1029091B2020196A9
:100EF0008F7399272091B3023091B4028217930720
:100F000059F0E091B102F091B202EF58FD4F4083E9
:100F10009093B2028093B102FF91EF919F918F91D4
:100F20004F913F912F910F900FBE0F901F901895EA
:100F30008EE092E00E94CA06892B11F00C94E60E16
:100F400008951F920F920FB60F9211242F933F9383
:100F50008F939F93EF93FF9320916D0230916E02D8
:100F600080916F02909170022817390731F48091B7
:100F7000C1008F7D8093C10014C0E0916F02F09199
:100F80007002E35DFD4F208180916F0290917002AD
:100F900001968F7399279093700280936F0220932C
:100FA000C600FF91EF919F918F913F912F910F90EC
:100FB0000FBE0F901F901895CF92DF92EF92FF9285
:100FC000CF93DF93EC016A017B01411581EE580755
:100FD00061057105F9F0EC89FD8981E090E00E8CE6
:100FE00002C0880F991F0A94E2F7808360E079E0DD
:100FF0008DE390E0A70196010E94B61221503109BD
:10100000410951095695479537952795211580E156
:10101000380798F0EC89FD89108260E874E88EE169
:1010200090E0A70196010E94B612215031094109B2
:1010300051095695479537952795E889F989308361
:10104000EA89FB892083EE89FF89408181E090E075
:101050009C010A8C02C0220F331F0A94E2F7422B34
:101060004083EE89FF8940819C010B8C02C0220FD6
:10107000331F0A94E2F7422B4083EE89FF894081B7
:101080009C010C8C02C0220F331F0A94E2F7422B02
:101090004083EE89FF8920810D8C02C0880F991F43
:1010A0000A94E2F7809582238083DF91CF91FF90AD
:1010B000EF90DF90CF9008951092110210921002DD
:1010C00088EE93E0A0E0B0E08093120290931302C8
:1010D000A0931402B093150289ED91E090930F0252
:1010E00080930E0281E792E090931B0280931A0294
:1010F0008DE292E090931D0280931C0285EC90E0BB
:1011000090931F0280931E0284EC90E09093210242
:101110008093200280EC90E090932302809322023F
:1011200081EC90E0909325028093240286EC90E07D
:10113000909327028093260284E08093280283E024
:101140008093290287E080932A0285E080932B0216
:1011500081E080932C020895CF92DF92EF92FF926C
:101160000F931F93CF93DF936C01EB017A01E60E8F
:10117000F71E00E010E00BC06991D601ED91FC91E3
:101180000190F081E02DC6010995080F191FCE15B9
:10119000DF0591F7C801DF91CF911F910F91FF906B
:1011A000EF90DF90CF900895DB010D900020E9F7DC
:1011B000AD0141505109461B570BDC01ED91FC91EB
:1011C0000280F381E02D09940C94D408FC01808105
:1011D00091810C943010CF93DF93EC018881998139
:1011E000009711F00E943010198218821D821C8213
:1011F0001B821A82DF91CF9108950F931F93CF9393
:10120000DF93EC018B016F5F7F4F888199810E9492
:10121000CC10009731F0998388831B830A8381E087
:1012200001C080E0DF91CF911F910F910895CF937E
:10123000DF93EC0188819981892B31F08A819B8130
:101240008617970708F00CC0CE010E94FD0888237E
:1012500049F08C819D81892B19F4E881F9811082F4
:1012600081E001C080E0DF91CF910895EF92FF927D
:101270000F931F93CF93DF93EC017B018A01BA0197
:101280000E941709811104C0CE010E94EB0807C01B
:101290001D830C83B701888199810E94F411CE01CE
:1012A000DF91CF911F910F91FF90EF900895DC0196
:1012B00011961C921E9213961C921E9212971596CE
:1012C0001C921E92149716961C926115710559F086
:1012D000DB010D900020E9F7AD0141505109461B9B
:1012E000570B0C9436090895CF93DF93EC01FB0163
:1012F0008617970761F0608171816115710529F08A
:10130000448155810E94360902C00E94EB08CE013B
:10131000DF91CF910895FC01118210821382128215
:101320001582148216820C947409CF93DF93D82F00
:10133000C92F6115710561F0DB010D900020E9F7FF
:10134000AD0141505109461B570B0E94360902C09E
:101350000E94EB088D2F9C2FDF91CF910895EF9283
:10136000FF920F931F93CF93DF93EC017B010C81CE
:101370001D816115710511F480E016C041155105FC
:1013800091F0040F151FB8010E9417098823A1F3DB
:10139000288139818C819D81B701820F931F0E9422
:1013A000F4111D830C8381E0DF91CF911F910F9188
:1013B000FF90EF900895EF92FF920F931F93CF93BA
:1013C000DF9300D000D0CDB7DEB77C01862F4AE096
:1013D00050E08E010F5F1F4FB80190E00E9409128C
:1013E000F80101900020E9F7AF0141505109401B7D
:1013F000510BB801C7010E94AF090F900F900F90D9
:101400000F90DF91CF911F910F91FF90EF90089572
:10141000EF92FF920F931F93CF93DF93CDB7DEB779
:1014200027970FB6F894DEBF0FBECDBF7C01CB016E
:101430004AE050E08E010F5F1F4FB8010E94091271
:10144000F80101900020E9F7AF0141505109401B1C
:10145000510BB801C7010E94AF0927960FB6F89447
:10146000DEBF0FBECDBFDF91CF911F910F91FF90D7
:10147000EF900895EF92FF920F931F93CF93DF9316
:1014800000D000D000D0CDB7DEB77C01CB014AE060
:1014900050E08E010F5F1F4FB8010E943F12F8010C
:1014A00001900020E9F7AF0141505109401B510B59
:1014B000B801C7010E94AF0926960FB6F894DEBFA7
:1014C0000FBECDBFDF91CF911F910F91FF90EF9095
:1014D0000895CF93DF93D82FC92F6115710569F057
:1014E000DB010D900020E9F7AD0141505109461B89
:1014F000570B0E94AF09811104C08D2F9C2F0E94B1
:10150000EB088D2F9C2FDF91CF910895CF93DF9320
:10151000D82FC92F0E94080A811104C08D2F9C2F3B
:101520000E94EB088D2F9C2FDF91CF910895CF93D0
:10153000DF93D82FC92F0E943A0A811104C08D2F42
:101540009C2F0E94EB088D2F9C2FDF91CF91089547
:10155000CF93DF93DC01ED91FC91EB01A881B98180
:10156000309711F01097C9F4109759F0EB012C81C6
:101570003D81232B31F02C9130E0319521953109BB
:1015800014C0309781F0DC0114968D919C911597D1
:10159000892B49F0208130E008C0BD01CF01DF91E7
:1015A000CF910C94EB1120E030E0C901DF91CF9195
:1015B0000895FA01DB0114964D915C911597DC01B9
:1015C00014962D913C911597241B350B2E173F0730
:1015D00090F08D919C91009771F0DB016D917C9161
:1015E0006115710541F08E0F9F1F0E94FB119C0138
:1015F00081E0232B09F080E00895FC0144815581AE
:10160000FB01248135814217530720F040E050E070
:101610000C94D90A80E00895FC0124813581621779
:10162000730748F480819181009729F0FC01E60F4F
:10163000F71F8081089580E008950C940C0BCF93E0
:10164000DF93FC01848195814817590780F4C0819C
:10165000D181772767FD7095CE01840F951F0E9479
:10166000E011009721F09C012C1B3D0B02C02FEFD5
:101670003FEFC901DF91CF91089540E050E00C9415
:101680001F0BBF92CF92DF92EF92FF920F931F93A7
:10169000CF93DF936C017B01EA01890124173507A1
:1016A00020F48D2FE901042F182F65EC71E0C6019D
:1016B0000E945709D70114968D919C9115978C170C
:1016C0009D07C8F08017910708F48C01D701ED91B0
:1016D000FC911197E00FF11FB08010826D917C9109
:1016E0006C0F7D1FC6010E949509D701ED91FC91F9
:1016F000E00FF11FB082C601DF91CF911F910F91D2
:10170000FF90EF90DF90CF90BF900895CF93DF933D
:10171000EC01FB01248135810E94410BCE01DF9158
:10172000CF910895FC0180819181009711F00C9474
:10173000941160E070E080E090E008950E944B0515
:101740000E94BC00C8E9D7E00E94ED012097E1F3B8
:101750000E949807F9CFCB010C945512CB01642F4E
:101760000C945D121F920F920FB60F9211242F93BB
:101770003F934F935F936F937F938F939F93AF9319
:10178000BF93EF93FF938091B70287FF05C010923C
:101790008500109284001AC02091B702332727FDDC
:1017A00030958091B60290E0281739077CF480913B
:1017B000B702992787FD9095FC01EE0FFF1FE80FF8
:1017C000F91FE854FD4F808186FD37C08091B70234
:1017D0008F5F8093B7022091B702332727FD3095A2
:1017E0008091B60290E028173907CCF58091B702B6
:1017F0008C30F4F134C08091B702992787FD909521
:10180000FC01EE0FFF1FE80FF91FE854FD4F808128
:1018100061E08F730E946A0652C080E49CE905C0B3
:101820008091840090918500049690938900809324
:1018300088008FEF8093B70242C08091B70299274A
:1018400087FD9095FC01EE0FFF1FE80FF91FE8548C
:10185000FD4F808160E08F730E946A06B7CF809150
:10186000840090918500049680349C49B0F2D8CFD2
:1018700080918400909185002091B702332727FD45
:101880003095F901EE0FFF1FE20FF31FE854FD4FF3
:1018900021813281820F931F909389008093880069
:1018A0008091B702992787FD9095FC01EE0FFF1FED
:1018B000E80FF91FE854FD4F808186FD9CCFFF9112
:1018C000EF91BF91AF919F918F917F916F915F91B8
:1018D0004F913F912F910F900FBE0F901F90189531
:1018E0002091B6022C30A0F4FC012083822F8F5F60
:1018F0008093B602822F90E0FC01EE0FFF1FE80FED
:10190000F91FE854FD4F88EB9BE092838183089593
:101910002FEFFC0120830895DF92EF92FF920F9347
:101920001F93CF93DF93EC01D62E7A018901888132
:101930008C3008F065C061E08D2D0E9432068881F0
:10194000A82FB0E0FD01EE0FFF1FEA0FFB1FE854C8
:10195000FD4F2D2D2F739081907C922B908360E210
:1019600072E06E197F0977FF02C06D5F7F4F75953A
:10197000679575956795698340E659E0401B510B63
:1019800057FF02C04D5F5F4F559547955595479559
:101990004A836CE00E9496129CE0899FB00111245A
:1019A00020E030E0A901460F571FFA01EE0FFF1F9C
:1019B000E40FF51FE854FD4F908196FD15C02F5F91
:1019C0003F4F2C30310571F71DC01092800082E02E
:1019D000809381001092850010928400B19A8091CA
:1019E0006F00826080936F00888190E0FC01EE0FB1
:1019F000FF1FE80FF91FE854FD4F8081806480834A
:101A0000888103C0882309F3EFCFDF91CF911F9125
:101A10000F91FF90EF90DF90089520E639E040E2CB
:101A200052E00C948C0CFC0180818C3070F591811B
:101A300028E830E0291B310997FD3395220F331F29
:101A4000220F331F621773077CF0928128E532E082
:101A5000291B310997FD3395220F331F220F331FA6
:101A6000621773070CF49B014FB7F89490E0FC01E8
:101A7000EE0FFF1FE80FF91FE854FD4F2250310908
:101A8000220F331F328321834FBF0895AF92BF923D
:101A9000CF92DF92EF92FF920F931F93CF93DF933A
:101AA000EC01603282E078070CF041C077FD04C0A1
:101AB000653B710524F405C060E070E002C064EB92
:101AC00070E0298188E890E0821B910927FD9395B9
:101AD000880F991F880F991F5C01CC24B7FCC09414
:101AE000DC2C882777FD8095982F2A8148E552E0E5
:101AF000421B510927FD5395440F551F440F551F95
:101B00008A01222717FD2095322F3F932F931F9391
:101B10000F9314EBE12EF12C00E010E020E030E018
:101B2000A9010E944E0F0F900F900F900F90CE01C1
:101B3000DF91CF911F910F91FF90EF90DF90CF90A9
:101B4000BF90AF900C94130DCF93DF93EC016AE03C
:101B500070E00F960E9417091E8A8DE28D878E878E
:101B6000DF91CF9108950F931F93CF93DF93EC01F3
:101B70008B010E94A40D1E8AF80180818D878181CE
:101B80008E871C86DF91CF911F910F910895EF9260
:101B9000FF920F931F93CF93DF93CDB7DEB72797B5
:101BA0000FB6F894DEBF0FBECDBF8C01FC01918152
:101BB0008585981350C09281868598134CC0780112
:101BC000F3E0EF0EF11C49E050E062EC70E0C70179
:101BD0000E94C911892B09F439C047E050E06CEC30
:101BE00070E0C7010E94C911892BC9F4F801F28481
:101BF0006F2D772767FD709584ED90E00E94BE11F0
:101C0000892B49F1F801E3846E2D772767FD7095E4
:101C100085EF90E00E94BE11892BA9F41CC0B7018A
:101C2000CE0101960E945709BE016F5F7F4FC80128
:101C30000F960E947409CE0101960E94E60881E089
:101C4000F801868B08C0F801F586E686B8018EE0BB
:101C500092E00E94E40827960FB6F894DEBF0FBE0C
:101C6000CDBFDF91CF911F910F91FF90EF9008951D
:101C7000FF920F931F93CF93DF93EC018E89811115
:101C800037C08EE092E00E94CA060C978CF18EE07D
:101C900092E00E94DD068136E9F48E01F12C8EE09F
:101CA00092E00E94F906F80181938F01FBE0FF1694
:101CB000D1F08EE092E00E94DD068136910599F424
:101CC00017C01C86CE01DF91CF911F910F91FF901D
:101CD0000C94C70D8EE092E0DF91CF911F910F9190
:101CE000FF900C94F906F3948CE0F812D8CFE9CF6A
:101CF000DF91CF911F910F91FF900895BF92CF92E6
:101D0000DF92EF92FF920F931F93CF93DF93EC013B
:101D10007B0181E688838D8589838E858A8300E0B7
:101D200010E08DE2B82EF701848195816E01C00E1E
:101D3000D11E0817190738F4B801C7010E941D0BFE
:101D4000F601838302C0F601B3820F5F1F4F093093
:101D5000110549F7BE018EE092E00E94E4088EE092
:101D600092E0DF91CF911F910F91FF90EF90DF9064
:101D7000CF90BF900C941D078091F3028F5F8093EA
:101D8000F30208951F920F920FB60F9211242F9312
:101D90003F934F935F936F937F938F939F93AF93F3
:101DA000BF93EF93FF930E94BC0EFF91EF91BF9101
:101DB000AF919F918F917F916F915F914F913F91E3
:101DC0002F910F900FBE0F901F9018958CED92E001
:101DD0000C94380E65EC71E08BEE92E00C94570990
:101DE0008BEE92E00C94E6081F920F920FB60F92C2
:101DF00011242F933F934F935F936F937F938F9310
:101E00009F93AF93BF93EF93FF938091F4029091D0
:101E1000F502892B29F0E091F402F091F502099581
:101E2000FF91EF91BF91AF919F918F917F916F91B2
:101E30005F914F913F912F910F900FBE0F901F9088
:101E400018951F920F920FB60F9211242F933F9364
:101E50004F935F936F937F938F939F93AF93BF93B2
:101E6000EF93FF938091F6029091F702892B29F06E
:101E7000E091F602F091F7020995FF91EF91BF9181
:101E8000AF919F918F917F916F915F914F913F9112
:101E90002F910F900FBE0F901F9018954F925F9249
:101EA0006F927F92AF92BF92CF92DF92EF92FF92AA
:101EB0000F931F93CF93DF93CDB7DEB729013A017C
:101EC000621B730B840B950B29893A894B895C89BA
:101ED0002A193B094C095D09298B3A8B4B8B5C8B8A
:101EE0009B01AC0169897A898B899C890E94861241
:101EF000E418F50806091709A80197010E94D812ED
:101F00002A0D3B1D4C1D5D1DB901CA01DF91CF910A
:101F10001F910F91FF90EF90DF90CF90BF90AF9007
:101F20007F906F905F904F9008950F931F93CF9382
:101F3000DF938230910510F482E090E0E091FA02A4
:101F4000F091FB0220E030E0C0E0D0E023C040810F
:101F5000518148175907A8F04817590761F4828141
:101F60009381209719F09B838A832EC09093FB0264
:101F70008093FA0229C02115310529F04217530731
:101F800010F0A90102C0BE01DF0102811381EF013F
:101F90009A01F8013097D9F62115310509F1281B6E
:101FA000390B2430310590F412968D919C91139742
:101FB0006115710521F0FB019383828304C0909326
:101FC000FB028093FA02FD01329644C0FD01E20F4C
:101FD000F31F81939193225031092D933C933AC082
:101FE0002091F8023091F902232B41F42091020153
:101FF000309103013093F9022093F80220910001FF
:10200000309101012115310541F42DB73EB74091C2
:10201000040150910501241B350BE091F802F09169
:10202000F902E217F307A0F42E1B3F0B281739071C
:1020300078F0AC014E5F5F4F2417350748F04E0F24
:102040005F1F5093F9024093F8028193919302C06D
:10205000E0E0F0E0CF01DF91CF911F910F91089563
:10206000EF92FF920F931F93CF93DF93009709F4A2
:102070008EC0DC01129713961C921E921297E0906C
:10208000FA02F090FB02E114F10489F42D913C91E5
:102090001197280F391F8091F8029091F902821749
:1020A000930789F5B093F902A093F80270C0E70195
:1020B00020E030E001C0EA01CA17DB0738F44A81AA
:1020C0005B819E0141155105B1F722C0AC01425020
:1020D0005109FA01D383C28300811181BC01600FD1
:1020E000711F6C177D0761F468817981600F711F22
:1020F0006E5F7F4F718360836A817B8173836283AC
:102100002115310529F4B093FB02A093FA023FC0D8
:10211000F901B383A283E90149915991C40FD51FF5
:10212000AC17BD0771F4DC019E918E91840F951F51
:1021300002969183808312968D919C91139793833D
:102140008283A0E0B0E002C0D7017C01F701828168
:1021500093810097C9F7C701029620813181820FD0
:10216000931F2091F8023091F9022817390779F46A
:10217000109729F41092FB021092FA0204C01396F1
:102180001C921E921297F092F902E092F802CDB7DB
:10219000DEB7E6E00C941C13A0E0B0E0E2EDF0E165
:1021A0000C94FA12EC01009729F4CB010E94950FD0
:1021B000EC01B4C0DC01A60FB71FFC013297AE17CB
:1021C000BF0718F4C0E0D0E0A9C000811181061754
:1021D0001707B0F00530110508F4A0C0C801049736
:1021E0008617970708F49AC002501109061B170BAF
:1021F0000D931D9371836083CD010E9430108EC0BA
:102200006B01C01AD10A7C01E00EF11EE091FA02C6
:10221000F091FB0220E030E080E090E048C0EE1555
:10222000FF05D1F580809180540142E0A40EB11CDD
:10223000AC14BD0488F17401EC18FD08670122E0BC
:10224000C20ED11C9E012250310945E0C416D104B2
:1022500078F04281538113965C934E9312971196B6
:10226000FC92EE92F901718360833A2F2B2F09C003
:102270000E5F1F4F080D191DD9010D931C9332815C
:102280002381009721F0FC013283238347C03093E0
:10229000FA022093FB0242C08081918128173907FE
:1022A00008F49C0152814381CF01E52FF42F309730
:1022B00009F0B5CF8091F8029091F9028E159F0533
:1022C000F1F426173707D8F48091000190910101AD
:1022D000009741F48DB79EB720910401309105011C
:1022E000821B930BA817B90708F06CCFB093F902C3
:1022F000A093F802FE013297718360830FC0CB0177
:102300000E94950F7C01009709F45CCFA801BE01E3
:102310000E94D711CE010E943010E701CE01CDB747
:10232000DEB7ECE00C9416131F93FC019927882765
:10233000BC01E89411911032E9F3193010F01E300D
:10234000C8F31B3251F01D3249F4689406C00E9454
:102350002A12610F711D811D911D119110531A30A8
:10236000B0F33EF490958095709561957F4F8F4FB7
:102370009F4F1F910895F8940C943D13FC01059014
:10238000061621F00020D9F7C00108953197CF013A
:102390000895FB01DC014150504030F08D910590D3
:1023A000801919F40020B9F7881B990B0895FB01D7
:1023B000DC0102C001900D9241505040D8F70895C1
:1023C000FC018191861721F08823D9F79927089578
:1023D0003197CF010895FB01DC018D9101908019A7
:1023E0000110D9F3990B0895FB01DC0101900D92C6
:1023F0000020E1F70895FB01DC014150504030F02E
:102400008D910190801919F40020B9F7881B990B60
:102410000895FB019F01E8944230C4F04532B4F4C2
:102420004A3029F497FB1EF4909581959F4F642FB5
:1024300077270E94A212805D8A330CF0895D819318
:10244000CB010097A1F716F45DE251931082C90108
:102450000C946B12592F482F372F262F660F771F9A
:10246000881F991F660F771F881F991F620F731FA0
:10247000841F951F660F771F881F991F0895FB0102
:102480009F01423074F0453264F4642F77270E9434
:10249000A212805D8A330CF0895D8193CB01009795
:1024A000A1F71082C9010C946B12F999FECF92BD6D
:1024B00081BDF89A992780B50895262FF999FECF06
:1024C0001FBA92BD81BD20BD0FB6F894FA9AF99A51
:1024D0000FBE01960895DC01FC01672F71917723EF
:1024E000E1F7329704C07C916D9370836291AE17CF
:1024F000BF07C8F308950E942B13A59F900DB49FAA
:10250000900DA49F800D911D11240895DB018F93E0
:102510009F930E947B12BF91AF91A29F800D911D4E
:10252000A39F900DB29F900D11240895991B79E0FF
:1025300004C0991F961708F0961B881F7A95C9F753
:1025400080950895AA1BBB1B51E107C0AA1FBB1FA2
:10255000A617B70710F0A61BB70B881F991F5A952F
:10256000A9F780959095BC01CD010895A1E21A2E9E
:10257000AA1BBB1BFD010DC0AA1FBB1FEE1FFF1F27
:10258000A217B307E407F50720F0A21BB30BE40B77
:10259000F50B661F771F881F991F1A9469F76095BE
:1025A0007095809590959B01AC01BD01CF01089578
:1025B000052E97FB16F4009407D057FD0DD00E940E
:1025C000B61207FC09D07EF49095809570956195C0
:1025D0007F4F8F4F9F4F089550954095309521958F
:1025E0003F4F4F4F5F4F08952F923F924F925F9210
:1025F0006F927F928F929F92AF92BF92CF92DF9213
:10260000EF92FF920F931F93CF93DF93CDB7DEB777
:10261000CA1BDB0B0FB6F894DEBF0FBECDBF09940B
:102620002A88398848885F846E847D848C849B8462
:10263000AA84B984C884DF80EE80FD800C811B8170
:10264000AA81B981CE0FD11D0FB6F894DEBF0FBE9F
:10265000CDBFED010895A29FB001B39FC001A39F1C
:1026600001D0B29F700D811D1124911D0895EE0FB0
:10267000FF1F0590F491E02D099411E0CCE1D1E029
:1026800004C0FE010E9439132296C032D107C9F757
:04269000F894FFCFEC
:102694000000FC02200006050BFE06050B0DFE01E2
:1026A4000101000102030405FE020304070A0CFEF3
:1026B400012D23403F5C2A41424344454647484953
:1026C4004A4B4C4D4E4F50515253545556575859EE
:1026D4005A00535441525445440048494748004C19
:1026E4004F570044300048454C4C4F2D2D2D2D00A4
:1026F400465645522D2D2D2D2D00312E30004445AA
:1027040056545950452D2D0052415357494B0053AF
:102714004156452D2D2D2D2D00534552564F005415
:102724004F4F4C4152474500434F554E5400484982
:1027340047482D2D004E4F544F5554505554004C7E
:102744004F572D2D2D004E4F5450574D005245419B
:10275400442D2D002B004E4F54494E5055540045E6
:1027640052524F5200000000002F07AC08CA06F96D
:0627740006DD061D070052
:00000001FF
